S016000076616375756D5F636C65616E65722E7372656344
S113000045C00000E3C100000CC2000035C200007E
S11300105EC2000058C0000056C0000054C000007A
S113002052C0000050C000004EC0000002C30000D7
S1130030A6C20000D1C2000075C2000044C0000086
S113004042C0000040C000003EC000003CC00000B0
S11300503AC0000038C0000036C0000034C00000C0
S113006032C0000087C400002BC4000056C4000046
S11300702AC00000F8C3000026C0000024C000000D
S113008022C0000020C000001EC0000011241FBEBA
S1130090CFEFD0E1DEBFCDBF11E0A0E0B1E0E6E7F5
S11300A0FDE000E00BBF02C007900D92A230B10743
S11300B0D9F721E0A2E0B1E001C01D92A132B2075C
S11300C0E1F702D056C69CCF7894909A919A929A6E
S11300D083D0A5D0FECF80910801811108C0109271
S11300E005011092040182E08093080108951092A2
S11300F005011092040110920801089580910801ED
S1130100813021F482E080930801089580910801F0
S1130110823019F483E080930801089580910801E6
S1130120833021F482E080930801089580910801CE
S1130130823019F481E080930801089580910201CE
S113014090910301019690930301809302018091A1
S11301500201909103018C349105D9F4179914C0CC
S113016095B381E0892785BB80910801833021F410
S113017082E080930801089580910801823049F457
S113018081E08093080108955ED3109203011092D8
S1130190020108958091060190910701892B71F461
S11301A0109203011092020148D380E030D381E021
S11301B090E09093070180930601089580910601D1
S11301C090910701019739F41092070110920601EA
S11301D03AD381E01CC3089574D053D017981F9A62
S11301E081E015D38AEC90E039D38EE990E031D3E5
S11301F01ED360E080E0A1D060E081E09ED060E0AA
S113020082E09BD06BE670E080E0D7D06EE770E0D0
S113021081E0D3D06EE870E082E0CFC0089580E042
S113022032D03DD4709305016093040180910401A0
S113023090910501C39748F080910001882329F02B
S11302401092080110920001089580910801809392
S1130250000180910801813041F028F0823049F09A
S1130260833059F0089526C0089521D088E239C01A
S113027008951DD086E435C0089519D084E631C0B0
S1130280089547C008954ED0BC0180E090E033D477
S113029020E030E040EA50E4BCD420E030E040E824
S11302A05AE3B7D42AE037ED43E25CE390C3D89A2B
S11302B0D99808951092850010928400D898D998FE
S11302C00895D09AD19A149A22E040E062E084E042
S11302D0DDD18FEF9FEF9093870080938600EACF64
S11302E00895853678F4282F30E0AFEFBFEF10D5AE
S11302F024E630E040E050E0EFD4309385002093D2
S1130300840008958FEF9FEF90938500809384007D
S1130310089586B1876086B987B18F73806487B981
S1130320379A08958F7197B1907E892B87B9369A41
S11303303699FECF84B195B10895662319F06130E2
S113034089F01EC0EAE6F0E0908121E030E0482F19
S1130350440F02C0220F331F4A95E2F72095292348
S113036020830EC0EAE6F0E0408121E030E0982FDF
S1130370990F02C0220F331F9A95E2F7242B208392
S1130380EAE6F0E09081482F50E0440F551F4F5F9C
S11303905F4F21E030E0B90102C0660F771F4A9534
S11303A0E2F7AB01492B408399B702C0220F331FF8
S11303B08A95E2F7292B29BF0895E82FF0E0EE0F84
S11303C0FF1FE75FFE4F7183608308951F920F92B2
S11303D00FB60F9211240BB60F922F933F934F93A6
S11303E05F936F937F938F939F93AF93BF93EF9399
S11303F0FF93E0910901F0910A010995FF91EF91B2
S1130400BF91AF919F918F917F916F915F914F9128
S11304103F912F910F900BBE0F900FBE0F901F9026
S113042018951F920F920FB60F9211240BB60F92CC
S11304302F933F934F935F936F937F938F939F93E8
S1130440AF93BF93EF93FF93E0910B01F0910C01F5
S11304500995FF91EF91BF91AF919F918F917F91FA
S11304606F915F914F913F912F910F900BBE0F9021
S11304700FBE0F901F9018951F920F920FB60F92F8
S113048011240BB60F922F933F934F935F936F9367
S11304907F938F939F93AF93BF93EF93FF93E091D9
S11304A00D01F0910E010995FF91EF91BF91AF916C
S11304B09F918F917F916F915F914F913F912F9178
S11304C00F900BBE0F900FBE0F901F9018951F92A8
S11304D00F920FB60F9211240BB60F922F933F93E6
S11304E04F935F936F937F938F939F93AF93BF9338
S11304F0EF93FF93E0910F01F09110010995FF91A3
S1130500EF91BF91AF919F918F917F916F915F9187
S11305104F913F912F910F900BBE0F900FBE0F90F4
S11305201F9018951F920F920FB60F9211240BB6BD
S11305300F922F933F934F935F936F937F938F9378
S11305409F93AF93BF93EF93FF93E0911F01F091BB
S11305502001309709F00995FF91EF91BF91AF9178
S11305609F918F917F916F915F914F913F912F91C7
S11305700F900BBE0F900FBE0F901F9018951F92F7
S11305800F920FB60F9211240BB60F922F933F9335
S11305904F935F936F937F938F939F93AF93BF9387
S11305A0EF93FF93E0911D01F0911E01309709F044
S11305B00995FF91EF91BF91AF919F918F917F9199
S11305C06F915F914F913F912F910F900BBE0F90C0
S11305D00FBE0F901F9018951F920F920FB60F9297
S11305E011240BB60F922F933F934F935F936F9306
S11305F07F938F939F93AF93BF93EF93FF93E09178
S11306001B01F0911C01309709F00995FF91EF91BE
S1130610BF91AF919F918F917F916F915F914F9116
S11306203F912F910F900BBE0F900FBE0F901F9014
S113063018951F920F920FB60F9211240BB60F92BA
S11306402F933F934F935F936F937F938F939F93D6
S1130650AF93BF93EF93FF93E0911901F0911A01C7
S1130660309709F00995FF91EF91BF91AF919F9158
S11306708F917F916F915F914F913F912F910F9047
S11306800BBE0F900FBE0F901F901895823071F122
S113069028F4882349F08130C1F05AC08330B9F17D
S11306A0843009F445C054C0EBE8F0E080818E7FCB
S11306B0808380818D7F8083EAE8F0E08081877F7A
S11306C0808380818F7E808343C0EBE8F0E080816B
S11306D08E7F808380818D7F8083EAE8F0E0808153
S11306E08860808380818061808332C0EBE8F0E0A1
S11306F080818E7F808380818D7F8083EAE8F0E033
S113070080818860808380818F7E808321C0EBE834
S1130710F0E080818E7F8083808182608083EAE83C
S1130720F0E080818860808380818061808310C054
S1130730EBE8F0E080818160808380818260808347
S1130740EAE8F0E080818860808380818061808332
S1130750413079F028F04230A9F04330E1F023C071
S1130760EBE8F0E080818F7B808380818F778083CA
S11307701AC0EBE8F0E080818064808380818F7709
S1130780808311C0EBE8F0E080818F7B80838081DF
S11307908068808308C0EBE8F0E080818064808317
S11307A0808180688083213079F028F02230A9F09C
S11307B02330E1F023C0EBE8F0E080818F7E80837A
S11307C080818F7D80831AC0EBE8F0E080818061B6
S11307D0808380818F7D808311C0EBE8F0E080818D
S11307E08F7E808380818062808308C0EBE8F0E0A4
S11307F0808180618083808180628083EAE8F0E088
S11308008081887F80838081682B60830895811133
S113081006C0EAE8F0E08081806480830895813036
S113082029F4EAE8F0E080818F7B80830895EDE786
S1130830F0E08081806280830895EDE7F0E08081BC
S1130840846080830895EDE7F0E080818B7F80836E
S113085008959093180180931701089590931201BD
S11308608093110108951F920F920FB60F921124D5
S11308700BB60F922F933F934F935F936F937F9396
S11308808F939F93AF93BF93EF93FF93E0911701DF
S1130890F0911801309709F00995FF91EF91BF91FC
S11308A0AF919F918F917F916F915F914F913F9104
S11308B02F910F900BBE0F900FBE0F901F901895A5
S11308C01F920F920FB60F9211240BB60F922F9313
S11308D03F934F935F936F937F938F939F93AF93C4
S11308E0BF93EF93FF93E0911501F09116013097B8
S11308F009F00995FF91EF91BF91AF919F918F916D
S11309007F916F915F914F913F912F910F900BBE0B
S11309100F900FBE0F901F9018951F920F920FB655
S11309200F9211240BB60F922F933F934F935F9323
S11309306F937F938F939F93AF93BF93EF93FF93A3
S1130940E0911301F0911401309709F00995FF919A
S1130950EF91BF91AF919F918F917F916F915F9133
S11309604F913F912F910F900BBE0F900FBE0F90A0
S11309701F9018951F920F920FB60F9211240BB669
S11309800F922F933F934F935F936F937F938F9324
S11309909F93AF93BF93EF93FF93E0911101F09175
S11309A01201309709F00995FF91EF91BF91AF9132
S11309B09F918F917F916F915F914F913F912F9173
S11309C00F900BBE0F900FBE0F901F9018950CD078
S11309D0E6C0DED040F0D5D030F021F45F3F19F00E
S11309E0C7C0511110C1CAC0EBD098F39923C9F301
S11309F05523B1F3951B550BBB27AA276217730721
S1130A00840738F09F5F5F4F220F331F441FAA1FD4
S1130A10A9F333D00E2E3AF0E0E830D09150504094
S1130A20E695001CCAF729D0FE2F27D0660F771F42
S1130A30881FBB1F261737074807AB07B0E809F024
S1130A40BB0B802DBF01FF2793585F4F2AF09E3FB9
S1130A50510568F08DC0D7C05F3FECF3983EDCF3DE
S1130A60869577956795B795F7959F5FC9F7880F32
S1130A70911D9695879597F90895E1E0660F771F84
S1130A80881FBB1F621773078407BA0720F0621B15
S1130A90730B840BBA0BEE1F88F7E095089598D07A
S1130AA088F09F5790F0B92F9927B751A0F0D1F053
S1130AB0660F771F881F991F1AF0BA95C9F712C0DD
S1130AC0B13081F09FD0B1E008959CC0672F782F9A
S1130AD08827B85F39F0B93FCCF386957795679549
S1130AE0B395D9F73EF490958095709561957F4FB5
S1130AF08F4F9F4F0895E89409C097FB3EF490955B
S1130B008095709561957F4F8F4F9F4F9923A9F0E2
S1130B10F92F96E9BB279395F69587957795679571
S1130B20B795F111F8CFFAF4BB0F11F460FF1BC0B5
S1130B306F5F7F4F8F4F9F4F16C0882311F096E948
S1130B4011C0772321F09EE8872F762F05C06623F6
S1130B5071F096E8862F70E060E02AF09A95660FAF
S1130B60771F881FDAF7880F9695879597F9089568
S1130B7097F99F6780E870E060E008959FEF80EC4C
S1130B80089500240A9416161706180609060895EF
S1130B9000240A9412161306140605060895092E55
S1130BA00394000C11F4882352F0BB0F40F4BF2BC4
S1130BB011F460FF04C06F5F7F4F8F4F9F4F089504
S1130BC057FD9058440F551F59F05F3F71F04795FA
S1130BD0880F97FB991F61F09F3F79F087950895DF
S1130BE0121613061406551FF2CF4695F1DF08C0FE
S1130BF0161617061806991FF1CF8695710561051B
S1130C0008940895E894BB2766277727CB0197F9C2
S1130C1008950BD0C4CFB5DF28F0BADF18F09523C0
S1130C2009F0A6CFABCF1124EECFCADFA0F3959F76
S1130C30D1F3950F50E0551F629FF001729FBB27BF
S1130C40F00DB11D639FAA27F00DB11DAA1F649F6B
S1130C506627B00DA11D661F829F2227B00DA11D1E
S1130C60621F739FB00DA11D621F839FA00D611DA4
S1130C70221F749F3327A00D611D231F849F600DC5
S1130C80211D822F762F6A2F11249F5750408AF0FE
S1130C90E1F088234AF0EE0FFF1FBB1F661F771F8A
S1130CA0881F91505040A9F79E3F510570F060CFC6
S1130CB0AACF5F3FECF3983EDCF386957795679572
S1130CC0B795F795E7959F5FC1F7FE2B880F911DA8
S1130CD09695879597F90895052E97FB16F4009439
S1130CE00FD057FD05D023D007FC02D046F408C02E
S1130CF050954095309521953F4F4F4F5F4F089544
S1130D0090958095709561957F4F8F4F9F4F089573
S1130D10A29FB001B39FC001A39F700D811D112438
S1130D20911DB29F700D811D1124911D0895A1E2A2
S1130D301A2EAA1BBB1BFD010DC0AA1FBB1FEE1F51
S1130D40FF1FA217B307E407F50720F0A21BB30B9C
S1130D50E40BF50B661F771F881F991F1A9469F718
S1130D6060957095809590959B01AC01BD01CF0174
S1090D700895F894FFCF82
S1050D76020075
S9030000FC
